{
  "contractName": "TestLurien",
  "abi": [
    {
      "inputs": [],
      "stateMutability": "nonpayable",
      "type": "constructor"
    },
    {
      "anonymous": false,
      "inputs": [
        {
          "indexed": false,
          "internalType": "string",
          "name": "_filledClaim",
          "type": "string"
        }
      ],
      "name": "ClaimFilled",
      "type": "event"
    },
    {
      "anonymous": false,
      "inputs": [
        {
          "indexed": false,
          "internalType": "string[]",
          "name": "_claimRequested",
          "type": "string[]"
        }
      ],
      "name": "ClaimRequested",
      "type": "event"
    },
    {
      "inputs": [
        {
          "internalType": "uint256",
          "name": "",
          "type": "uint256"
        }
      ],
      "name": "claim",
      "outputs": [
        {
          "internalType": "string",
          "name": "",
          "type": "string"
        }
      ],
      "stateMutability": "view",
      "type": "function",
      "constant": true
    },
    {
      "inputs": [],
      "name": "claimNum",
      "outputs": [
        {
          "internalType": "uint256",
          "name": "",
          "type": "uint256"
        }
      ],
      "stateMutability": "view",
      "type": "function",
      "constant": true
    },
    {
      "inputs": [],
      "name": "getClaim",
      "outputs": [],
      "stateMutability": "nonpayable",
      "type": "function"
    },
    {
      "inputs": [
        {
          "internalType": "string",
          "name": "_claimJson",
          "type": "string"
        },
        {
          "internalType": "address",
          "name": "_sender",
          "type": "address"
        }
      ],
      "name": "claimFilled",
      "outputs": [],
      "stateMutability": "nonpayable",
      "type": "function"
    }
  ],
  "bytecode": "0x6080604052600060035534801561001557600080fd5b50336000806101000a81548173ffffffffffffffffffffffffffffffffffffffff021916908373ffffffffffffffffffffffffffffffffffffffff16021790555060028060018154018082558091505060019003906000526020600020016000604051806020016040528060008152509091909150908051906020019061009d92919061025b565b50600280600181540180825580915050600190039060005260206000200160006040518060400160405280600381526020017f646e6900000000000000000000000000000000000000000000000000000000008152509091909150908051906020019061010b92919061025b565b50600280600181540180825580915050600190039060005260206000200160006040518060400160405280600481526020017f6e616d65000000000000000000000000000000000000000000000000000000008152509091909150908051906020019061017992919061025b565b50600280600181540180825580915050600190039060005260206000200160006040518060400160405280601581526020017f6163636573735465737443657274696669636174650000000000000000000000815250909190915090805190602001906101e792919061025b565b50600280600181540180825580915050600190039060005260206000200160006040518060400160405280600e81526020017f616363657373546573744d61726b0000000000000000000000000000000000008152509091909150908051906020019061025592919061025b565b50610300565b828054600181600116156101000203166002900490600052602060002090601f016020900481019282601f1061029c57805160ff19168380011785556102ca565b828001600101855582156102ca579182015b828111156102c95782518255916020019190600101906102ae565b5b5090506102d791906102db565b5090565b6102fd91905b808211156102f95760008160009055506001016102e1565b5090565b90565b6107258061030f6000396000f3fe608060405234801561001057600080fd5b506004361061004c5760003560e01c8063379607f51461005157806350a969fc14610081578063844a8c691461009f578063c8073ab6146100a9575b600080fd5b61006b6004803603610066919081019061030c565b6100c5565b60405161007891906104ef565b60405180910390f35b61008961017e565b6040516100969190610533565b60405180910390f35b6100a7610184565b005b6100c360048036036100be91908101906102b8565b6101be565b005b600281815481106100d257fe5b906000526020600020016000915090508054600181600116156101000203166002900480601f0160208091040260200160405190810160405280929190818152602001828054600181600116156101000203166002900480156101765780601f1061014b57610100808354040283529160200191610176565b820191906000526020600020905b81548152906001019060200180831161015957829003601f168201915b505050505081565b60035481565b7f7c82e2fb80fb25718600f15c1f3894a2cc333256b7127500a756ec8d646e943260026040516101b491906104cd565b60405180910390a1565b80600160006101000a81548173ffffffffffffffffffffffffffffffffffffffff021916908373ffffffffffffffffffffffffffffffffffffffff1602179055507fc98ba1d12613485c6f4a30edf54eafb43335a703ad007012da5fd8b06a34702a8260405161022e9190610511565b60405180910390a15050565b600081359050610249816106c1565b92915050565b600082601f83011261026057600080fd5b813561027361026e8261057b565b61054e565b9150808252602083016020830185838301111561028f57600080fd5b61029a83828461066e565b50505092915050565b6000813590506102b2816106d8565b92915050565b600080604083850312156102cb57600080fd5b600083013567ffffffffffffffff8111156102e557600080fd5b6102f18582860161024f565b92505060206103028582860161023a565b9150509250929050565b60006020828403121561031e57600080fd5b600061032c848285016102a3565b91505092915050565b6000610341838361042f565b905092915050565b6000610354826105d1565b61035e81856105ff565b935083602082028501610370856105a7565b8060005b858110156103ab5784840389528161038c8582610335565b9450610397836105f2565b925060208a01995050600181019050610374565b50829750879550505050505092915050565b60006103c8826105e7565b6103d28185610621565b93506103e281856020860161067d565b6103eb816106b0565b840191505092915050565b6000610401826105dc565b61040b8185610621565b935061041b81856020860161067d565b610424816106b0565b840191505092915050565b60008154600181166000811461044c5760018114610472576104b6565b607f600283041661045d8187610610565b955060ff1983168652602086019350506104b6565b600282046104808187610610565b955061048b856105bc565b60005b828110156104ad5781548189015260018201915060208101905061048e565b80880195505050505b505092915050565b6104c781610664565b82525050565b600060208201905081810360008301526104e78184610349565b905092915050565b6000602082019050818103600083015261050981846103f6565b905092915050565b6000602082019050818103600083015261052b81846103bd565b905092915050565b600060208201905061054860008301846104be565b92915050565b6000604051905081810181811067ffffffffffffffff8211171561057157600080fd5b8060405250919050565b600067ffffffffffffffff82111561059257600080fd5b601f19601f8301169050602081019050919050565b60008190508160005260206000209050919050565b60008190508160005260206000209050919050565b600081549050919050565b600081519050919050565b600081519050919050565b6000600182019050919050565b600082825260208201905092915050565b600082825260208201905092915050565b600082825260208201905092915050565b600061063d82610644565b9050919050565b600073ffffffffffffffffffffffffffffffffffffffff82169050919050565b6000819050919050565b82818337600083830152505050565b60005b8381101561069b578082015181840152602081019050610680565b838111156106aa576000848401525b50505050565b6000601f19601f8301169050919050565b6106ca81610632565b81146106d557600080fd5b50565b6106e181610664565b81146106ec57600080fd5b5056fea2646970667358221220937b2dca89fef336102147dc930881776b536539fe798331afa05122c5c9001064736f6c63430006010033",
  "source": "pragma solidity ^0.6.1;\r\npragma experimental ABIEncoderV2;\r\ncontract TestLurien{\r\n    //Contract used from the university service\r\n    address serviceAddress;\r\n    address userAddress;\r\n    bool consent;\r\n\r\n    string[] public claim;\r\n    uint public claimNum=0;\r\n    constructor()public{\r\n        serviceAddress = msg.sender;\r\n        claim.push(\"\");\r\n        claim.push(\"dni\");\r\n        claim.push(\"name\");\r\n        claim.push(\"accessTestCertificate\");\r\n        claim.push(\"accessTestMark\");\r\n    }\r\n    function getClaim()public{\r\n        emit ClaimRequested(claim);\r\n    }\r\n    event ClaimFilled(\r\n        string _filledClaim\r\n    );\r\n\r\n    event ClaimRequested(\r\n        string[] _claimRequested\r\n    );\r\n\r\n    function claimFilled(string memory _claimJson,address _sender) public {\r\n        // Events are emitted using `emit`, followed by\r\n        // the name of the event and the arguments\r\n        // (if any) in parentheses. Any such invocation\r\n        // (even deeply nested) can be detected from\r\n        // the JavaScript API by filtering for `Deposit`.\r\n        userAddress = _sender;\r\n        emit ClaimFilled(_claimJson);\r\n    }\r\n}\r\n",
  "sourcePath": "D:\\LurienProject\\LurienSmartContracts\\contracts\\LurienContract.sol",
  "compiler": {
    "name": "solc",
    "version": "0.6.1+commit.e6f7d5a4.Emscripten.clang"
  },
  "schemaVersion": "3.0.23",
  "updatedAt": "2020-07-01T09:59:23.146Z",
  "networkType": "ethereum",
  "devdoc": {
    "methods": {}
  },
  "userdoc": {
    "methods": {}
  }
}