{
  "contractName": "TestLurien",
  "abi": [
    {
      "inputs": [],
      "stateMutability": "nonpayable",
      "type": "constructor"
    },
    {
      "anonymous": false,
      "inputs": [
        {
          "indexed": false,
          "internalType": "string",
          "name": "_filledClaim",
          "type": "string"
        }
      ],
      "name": "ClaimFilled",
      "type": "event"
    },
    {
      "inputs": [
        {
          "internalType": "uint256",
          "name": "",
          "type": "uint256"
        }
      ],
      "name": "claim",
      "outputs": [
        {
          "internalType": "string",
          "name": "",
          "type": "string"
        }
      ],
      "stateMutability": "view",
      "type": "function"
    },
    {
      "inputs": [],
      "name": "getClaim",
      "outputs": [
        {
          "internalType": "string[]",
          "name": "",
          "type": "string[]"
        }
      ],
      "stateMutability": "view",
      "type": "function"
    },
    {
      "inputs": [
        {
          "internalType": "string",
          "name": "_claimJson",
          "type": "string"
        }
      ],
      "name": "claimFilled",
      "outputs": [],
      "stateMutability": "nonpayable",
      "type": "function"
    }
  ],
  "bytecode": "0x608060405234801561001057600080fd5b50336000806101000a81548173ffffffffffffffffffffffffffffffffffffffff021916908373ffffffffffffffffffffffffffffffffffffffff160217905550600280600181540180825580915050600190039060005260206000200160006040518060400160405280600381526020017f646e690000000000000000000000000000000000000000000000000000000000815250909190915090805190602001906100be92919061020e565b50600280600181540180825580915050600190039060005260206000200160006040518060400160405280600481526020017f6e616d65000000000000000000000000000000000000000000000000000000008152509091909150908051906020019061012c92919061020e565b50600280600181540180825580915050600190039060005260206000200160006040518060400160405280601581526020017f61636365737354657374436572746966696361746500000000000000000000008152509091909150908051906020019061019a92919061020e565b50600280600181540180825580915050600190039060005260206000200160006040518060400160405280600e81526020017f616363657373546573744d61726b0000000000000000000000000000000000008152509091909150908051906020019061020892919061020e565b506102b3565b828054600181600116156101000203166002900490600052602060002090601f016020900481019282601f1061024f57805160ff191683800117855561027d565b8280016001018555821561027d579182015b8281111561027c578251825591602001919060010190610261565b5b50905061028a919061028e565b5090565b6102b091905b808211156102ac576000816000905550600101610294565b5090565b90565b6106ae806102c26000396000f3fe608060405234801561001057600080fd5b50600436106100415760003560e01c8063379607f514610046578063844a8c6914610076578063a2e81fac14610094575b600080fd5b610060600480360361005b9190810190610377565b6100b0565b60405161006d91906104f6565b60405180910390f35b61007e610169565b60405161008b91906104d4565b60405180910390f35b6100ae60048036036100a99190810190610336565b610252565b005b600281815481106100bd57fe5b906000526020600020016000915090508054600181600116156101000203166002900480601f0160208091040260200160405190810160405280929190818152602001828054600181600116156101000203166002900480156101615780601f1061013657610100808354040283529160200191610161565b820191906000526020600020905b81548152906001019060200180831161014457829003601f168201915b505050505081565b60606002805480602002602001604051908101604052809291908181526020016000905b82821015610249578382906000526020600020018054600181600116156101000203166002900480601f0160208091040260200160405190810160405280929190818152602001828054600181600116156101000203166002900480156102355780601f1061020a57610100808354040283529160200191610235565b820191906000526020600020905b81548152906001019060200180831161021857829003601f168201915b50505050508152602001906001019061018d565b50505050905090565b33600160006101000a81548173ffffffffffffffffffffffffffffffffffffffff021916908373ffffffffffffffffffffffffffffffffffffffff1602179055507fc98ba1d12613485c6f4a30edf54eafb43335a703ad007012da5fd8b06a34702a816040516102c29190610518565b60405180910390a150565b600082601f8301126102de57600080fd5b81356102f16102ec82610567565b61053a565b9150808252602083016020830185838301111561030d57600080fd5b61031883828461060e565b50505092915050565b60008135905061033081610661565b92915050565b60006020828403121561034857600080fd5b600082013567ffffffffffffffff81111561036257600080fd5b61036e848285016102cd565b91505092915050565b60006020828403121561038957600080fd5b600061039784828501610321565b91505092915050565b60006103ac8383610462565b905092915050565b60006103bf826105a3565b6103c981856105d1565b9350836020820285016103db85610593565b8060005b8581101561041757848403895281516103f885826103a0565b9450610403836105c4565b925060208a019950506001810190506103df565b50829750879550505050505092915050565b6000610434826105b9565b61043e81856105f3565b935061044e81856020860161061d565b61045781610650565b840191505092915050565b600061046d826105ae565b61047781856105e2565b935061048781856020860161061d565b61049081610650565b840191505092915050565b60006104a6826105ae565b6104b081856105f3565b93506104c081856020860161061d565b6104c981610650565b840191505092915050565b600060208201905081810360008301526104ee81846103b4565b905092915050565b60006020820190508181036000830152610510818461049b565b905092915050565b600060208201905081810360008301526105328184610429565b905092915050565b6000604051905081810181811067ffffffffffffffff8211171561055d57600080fd5b8060405250919050565b600067ffffffffffffffff82111561057e57600080fd5b601f19601f8301169050602081019050919050565b6000819050602082019050919050565b600081519050919050565b600081519050919050565b600081519050919050565b6000602082019050919050565b600082825260208201905092915050565b600082825260208201905092915050565b600082825260208201905092915050565b6000819050919050565b82818337600083830152505050565b60005b8381101561063b578082015181840152602081019050610620565b8381111561064a576000848401525b50505050565b6000601f19601f8301169050919050565b61066a81610604565b811461067557600080fd5b5056fea2646970667358221220264e3a56b014e8623baef0c718cc5c91c326bc5098783030fe31038ff64e054764736f6c63430006010033",
  "source": "pragma solidity ^0.6.1;\r\npragma experimental ABIEncoderV2;\r\ncontract TestLurien{\r\n    \r\n    //Contract used from the university service\r\n    address serviceAddress;\r\n    address userAddress;\r\n    bool consent;\r\n\r\n    string[] public claim;\r\n    \r\n    constructor()public{\r\n        serviceAddress = msg.sender;\r\n        claim.push(\"dni\");\r\n        claim.push(\"name\");\r\n        claim.push(\"accessTestCertificate\");\r\n        claim.push(\"accessTestMark\");\r\n    }\r\n    \r\n    function getClaim()public view returns(string[] memory){\r\n        return claim;\r\n    }\r\n    \r\n    event ClaimFilled(\r\n        string _filledClaim\r\n    );\r\n\r\n    function claimFilled(string memory _claimJson) public {\r\n        // Events are emitted using `emit`, followed by\r\n        // the name of the event and the arguments\r\n        // (if any) in parentheses. Any such invocation\r\n        // (even deeply nested) can be detected from\r\n        // the JavaScript API by filtering for `Deposit`.\r\n        \r\n        userAddress = msg.sender;\r\n        \r\n        emit ClaimFilled(_claimJson);\r\n    }\r\n    \r\n}\r\n",
  "sourcePath": "C:/Users/c.taidi/Documents/LurienXUrjcContract/contracts/LurienContract.sol",
  "compiler": {
    "name": "solc",
    "version": "0.6.1+commit.e6f7d5a4.Emscripten.clang"
  },
  "schemaVersion": "3.0.21",
  "updatedAt": "2020-02-06T09:03:46.409Z",
  "devdoc": {
    "methods": {}
  },
  "userdoc": {
    "methods": {}
  }
}